:100000000C94A7010C94CF010C94CF010C94CF0158
:100010000C94CF010C94CF010C94CF010C94CF0120
:100020000C94CF010C94E1170C9447100C94130F0F
:100030000C94CF010C94CF010C94CF010C94CF0100
:100040000C94CF010C94CF010C94CF010C94CF01F0
:100050000C94CF010C94CF010C94CF010C94BC07ED
:100060000C94CF010C94CF1A0C94011B0C94CF016B
:100070000C94CF010C94CF010C94CF010C94CF01C0
:100080000C94CF010C94CF010C94CF010C94CF01B0
:100090000C94CF010C94CF010C94CF010C94CF01A0
:1000A0000C94CF010C94CF010C94CF01CB08CE0857
:1000B000BD08C108C708EF08EF08EF08D208D60846
:1000C000DA08E008E408EF08EA0853657475702060
:1000D0004F4B2E2E2E0A000A4252494447452044D7
:1000E0004F4E452E2E2E000A5374617274696E674E
:1000F000204272696467652E2E2E005365747570F8
:10010000206F6C6420636F6E6669677572617469D5
:100110006F6E20696E2042542064657669636520A5
:100120002D3E204F4B20000000000200090F000070
:10013000030401000C0000000000000000000000AB
:100140000000000000040802011040804010204020
:1001500080408008020401804020100201108010BD
:1001600020404004040404040304050202020204C3
:100170000302020202060606060606040402020242
:1001800004000000002300260029002C002F00009E
:10019000000000250028002B002E00310000000088
:1001A00000240027002A002D003000080B00020266
:1001B00002010009040000010202000005240010F1
:1001C000010524010101042402060524060001079B
:1001D00005810310004009040100020A0000000725
:1001E0000502024000000705830240000000C180B4
:1001F00081C1120100020200004041234180000140
:100200000102000112010002000000404123418070
:1002100000010102000141726475696E6F204C4C4F
:10022000430055534220494F20426F6172640004DD
:1002300003090472756E2D6272696467650A000AAB
:10024000000A0000000000000000002A2B28000027
:10025000000000000000000000000000000000009E
:100260000000002C9EB4A0A1A2A434A6A7A5AE367F
:100270002D3738271E1F20212223242526B333B6ED
:100280002EB7B89F8485868788898A8B8C8D8E8FC0
:10029000909192939495969798999A9B9C9D2F31C3
:1002A00030A3AD350405060708090A0B0C0D0E0F27
:1002B000101112131415161718191A1B1C1DAFB1A3
:1002C000B0B500090402000103000000092101018A
:1002D00000012265000705840340000105010902B1
:1002E000A1010901A10085010509190129031500D2
:1002F00025019503750181029501750581030501AD
:100300000930093109381581257F75089503810663
:10031000C0C005010906A1018502050719E029E70A
:100320001500250175019508810295017508810365
:1003300095067508150025650507190029658100D2
:10034000C0006F06220ABD14C21A311B9806112480
:100350001FBECFEFDAE0DEBFCDBF13E0A0E0B1E01B
:10036000E2EAF1E402C005900D92A233B107D9F799
:1003700025E0A2E3B3E001C01D92A530B207E1F78A
:1003800013E0CCE4D3E004C02297FE010E94752064
:10039000C234D107C9F70E94A3110C94691D0C94B3
:1003A000000040E855E260E070E08FEA93E00E94D0
:1003B0001C0A68EC70E080E090E00E94350861E083
:1003C0008DE00E94F00840E855E260E070E082E3D2
:1003D00093E00E94E41868EE73E080E090E00E94F1
:1003E00035086BEF70E08FEA93E00E94F40B67EE44
:1003F00070E08FEA93E00E94F40B26E040E950EDB4
:1004000063E070E080911104909112040E94220B2D
:1004100088E094E00E94B61367ED70E08FEA93E005
:100420000E94F40B6AEC70E08FEA93E00C94F40BFA
:100430005F926F927F928F929F92AF92BF92CF9274
:10044000DF92EF92FF920F931F93CF93DF93CDB77D
:10045000DEB7C059D1090FB6F894DEBF0FBECDBFCD
:100460006DE271E08FEA93E00E94E70B40E150E01B
:1004700060E070E08FEA93E00E94D50C1F9284E068
:100480008F9381E491E09F938F93CE0101967C013D
:10049000FF928F930E947C1D1F921F92FF92EF92FA
:1004A0006E0191E8C90ED11CDF92CF920E947C1D93
:1004B000B6018FEA93E00E94E70B6AE471E08FEAED
:1004C00093E00E94E70B0FB6F894DEBF0FBECDBFDE
:1004D00000E010E084E0582E91E4892E91E0992EFE
:1004E00023E4622E21E0722EC8018F709927892B98
:1004F00009F04DC00115110509F449C06AE471E025
:100500008FEA93E00E94E70B5801F0E1AF1AB108BF
:10051000A016B106B8F4C5010E94701F90EE980FA6
:100520009F3538F061EE71E08FEA93E00E94E70BAF
:1005300005C0682F8FEA93E00E94E90B8FEFA81A9D
:10054000B80AE6CF8FEA93E00E94F00B1F925F9209
:100550009F928F92FF92EF920E947C1D1F930F93A8
:10056000FF92EF92DF92CF920E947C1DB6018FEA3C
:1005700093E00E94E70B6AE471E08FEA93E00E9447
:10058000E70B0FB6F894DEBF0FBECDBF0EC0C8019B
:1005900087709927892B49F40115110531F06DE415
:1005A00071E08FEA93E00E94E70BC8010E94701F80
:1005B000B82E1F925F927F926F92FF92EF920E94ED
:1005C0007C1D2B2D332727FD30953F93BF92FF9243
:1005D000EF92DF92CF920E947C1DF60162818FEA3A
:1005E00093E00E94E90BF60163818FEA93E00E9499
:1005F000E90B6EE471E08FEA93E00E94E70B0F5F76
:100600001F4F0FB6F894DEBF0FBECDBF013094E090
:10061000190709F069CF00E010E07801FFEFEF1A49
:10062000FBEFFF0A0F301105A1F06CE471E08FEAD7
:1006300093E00E94E70BE7E0EE22FF24EF2831F47D
:100640006DE471E08FEA93E00E94E70B0F5F1F4FAC
:10065000E4CF6AE471E08FEA93E00E94E70B8FEF4A
:1006600093E00E94701F90EE980F9F3538F061EE76
:1006700071E08FEA93E00E94E70B05C0682F8FEAD4
:1006800093E00E94E90B8FEA93E00E94F00BC057C1
:10069000DF4F0FB6F894DEBF0FBECDBFDF91CF9115
:1006A0001F910F91FF90EF90DF90CF90BF90AF9090
:1006B0009F908F907F906F905F9008952F923F92C0
:1006C0004F925F926F927F928F929F92AF92BF9262
:1006D000CF92DF92EF92FF920F931F93CF93DF930E
:1006E000CDB7DEB7C059D1090FB6F894DEBF0FBE43
:1006F000CDBF5C014B016115710521F44EEF842ED5
:100700004FE7942E60E571E08FEA93E00E94E70BDB
:10071000350140E150E0B5018FEA93E00E94D50C2D
:100720001F9284E08F9381E491E09F938F938E01D9
:100730000F5F1F4F1F930F930E947C1DBF92AF92BC
:100740001F930F937E0181E8E80EF11CFF92EF9258
:100750000E947C1DB7018FEA93E00E94E70B6AE4D8
:1007600071E08FEA93E00E94E70B0FB6F894DEBFCA
:100770000FBECDBFC12CD12C861497040CF49CC0A5
:100780001501260C371CC6018F709927892B09F09B
:100790004DC0C114D10409F449C06AE471E08FEA84
:1007A00093E00E94E70B31E1432E512CB1E04B1A4C
:1007B0005108A1F0F101E419F509649180EE860F6A
:1007C0008F3538F061EE71E08FEA93E00E94E70B1D
:1007D000EDCF8FEA93E00E94E90BE8CF8FEA93E038
:1007E0000E94F00B1F92E4E0EF93A1E4B1E0BF930D
:1007F000AF931F930F930E947C1D7F926F921F9364
:100800000F93FF92EF920E947C1DB7018FEA93E055
:100810000E94E70B6AE471E08FEA93E00E94E70B25
:100820000FB6F894DEBF0FBECDBF0EC0C6018770F5
:100830009927892B49F4C114D10431F06DE471E09A
:100840008FEA93E00E94E70BF10124901F92F4E0FD
:10085000FF93A3E4B1E0BF93AF931F930F930E9464
:100860007C1D822D992787FD90959F932F921F9332
:100870000F93FF92EF920E947C1DD70112966C910C
:100880008FEA93E00E94E90BF70163818FEA93E01E
:100890000E94E90B6EE471E08FEA93E00E94E70B9F
:1008A000FFEF6F1A7F0A8FEFC81AD80A0FB6F894B5
:1008B000DEBF0FBECDBF60CFE12CF12C87010C0D48
:1008C0001D1DC8018F709927892BA1F06CE471E080
:1008D0008FEA93E00E94E70B07701127012B31F498
:1008E0006DE471E08FEA93E00E94E70BBFEFEB1A33
:1008F000FB0AE4CF6AE471E08FEA93E00E94E70B21
:100900008401005111090E0D1F1D08151905B4F4BD
:10091000F501E00FF11F649180EE860F8F3538F0FE
:1009200061EE71E08FEA93E00E94E70B04C08FEA6A
:1009300093E00E94E90B0F5F1F4FE7CF8FEA93E030
:100940000E94F00BC057DF4F0FB6F894DEBF0FBE0A
:10095000CDBFDF91CF911F910F91FF90EF90DF906E
:10096000CF90BF90AF909F908F907F906F905F904F
:100970004F903F902F900895CF92DF92EF92FF9289
:100980000F931F93CF93DF938C017B01611571054A
:1009900021F4EE24EA945AE0F52E63E671E08FEA42
:1009A00093E00E94E70B6DB77EB740E150E08FEA1D
:1009B00093E00E94010D62E771E08FEA93E00E94EC
:1009C000E70BE80140E150E0B8018FEA93E00E94B4
:1009D000D50C40E150E0B8018FEA93E00E94CD0CC5
:1009E0006AE471E08FEA93E00E94E70B00E010E018
:1009F000EC16FD060CF45DC0C8018F709927892B99
:100A000089F50115110571F16AE471E08FEA93E04F
:100A10000E94E70B6E0180E1C81AD108CC16DD06F2
:100A200099F0F60161916F0180EE860F8F3538F0F5
:100A300061EE71E08FEA93E00E94E70BEFCF8FEA5F
:100A400093E00E94E90BEACF8FEA93E00E94F00B5B
:100A500040E150E0BE018FEA93E00E94CD0C6AE4D1
:100A600071E00AC0C80187709927892B49F40115E4
:100A7000110531F06DE471E08FEA93E00E94E70B1D
:100A80008881803130F46DE771E08FEA93E00E9455
:100A9000E70B40E150E069918FEA93E00E94FA0C85
:100AA0006EE471E08FEA93E00E94E70B0F5F1F4F47
:100AB0009FCFC12CD12CE601C00FD11FCE018F706A
:100AC0009927892BA1F06CE471E08FEA93E00E94F2
:100AD000E70BC770DD27CD2B31F46DE471E08FEAB1
:100AE00093E00E94E70BFFEFCF1ADF0AE4CF6AE43E
:100AF00071E08FEA93E00E94E70BE7016097CC0D6D
:100B0000DD1DCE15DF058CF4699180EE860F8F35E3
:100B100038F061EE71E08FEA93E00E94E70BF1CFCD
:100B20008FEA93E00E94E90BECCF8FEA93E0DF912C
:100B3000CF911F910F91FF90EF90DF90CF900C9489
:100B4000F00BEF92FF920F931F93CF93DF93EC0183
:100B50006FE771E08FEA93E00E94060C66E871E0AF
:100B60008FEA93E00E94E70B40E150E0BE018FEA7C
:100B700093E00E94CD0C6AE471E08FEA93E00E945A
:100B8000E70B00E010E0C115FBE0DF070CF063C0ED
:100B9000C8018F709927892BB9F501151105A1F1AD
:100BA0006AE471E08FEA93E00E94E70B7E0180E146
:100BB000E81AF108EC16FD0699F0F70161917F0142
:100BC00080EE860F8F3538F061EE71E08FEA93E0AA
:100BD0000E94E70BEFCF8FEA93E00E94E90BEACF88
:100BE0008FEA93E00E94F00B66E871E08FEA93E0F1
:100BF0000E94E70B40E150E0BE018FEA93E00E94C3
:100C0000CD0C6AE471E00AC0C80187709927892B6E
:100C100049F40115110531F06DE471E08FEA93E0BC
:100C20000E94E70B8881803130F46DE771E08FEA34
:100C300093E00E94E70B40E150E069918FEA93E076
:100C40000E94FA0C6EE471E08FEA93E00E94E70BD9
:100C50000F5F1F4F98CFC0E0D0E07E01E00EF11E85
:100C6000C7018F709927892B99F06CE471E08FEAA6
:100C700093E00E94E70B87E0E822FF24EF2831F49D
:100C80006DE471E08FEA93E00E94E70B2196E5CFD7
:100C90006AE471E08FEA93E00E94E70BC151D54FFF
:100CA000CF3FEAE0DE078CF4699180EE860F8F3546
:100CB00038F061EE71E08FEA93E00E94E70BF0CF2D
:100CC0008FEA93E00E94E90BEBCF8FEA93E0DF918C
:100CD000CF911F910F91FF90EF900C94F00B109219
:100CE00054031092530388EE93E0A0E0B0E08093A9
:100CF000550390935603A0935703B093580388E08D
:100D000093E0909352038093510388E094E0909392
:100D10005E0380935D03109263031092640310924C
:100D2000650320E04BE06AE082E393E00C94B418A2
:100D300082E393E00E945B1881E593E00C946D16CA
:100D40000F931F93CF93DF93CDB7DEB764970FB6A2
:100D5000F894DEBF0FBECDBF8DB79EB70E94A10530
:100D600082E393E00E947B17892BD1F300E010E02F
:100D700082E393E00E947B1718161906A4F482E31D
:100D800093E00E94EE16E1E0F0E0EC0FFD1FE00FB3
:100D9000F11F80830F5F1F4F69E170E080E090E0FA
:100DA0000E943508E5CF8DB79EB70E94A10580E06F
:100DB00090E064960FB6F894DEBF0FBECDBFDF9112
:100DC000CF911F910F91089581E593E00E94F01556
:100DD0008111FACF8FEA93E00E94F00B81E593E056
:100DE0000E9445151816190654F481E593E00E94F7
:100DF0004F15682F8FEA93E00E94E90BEFCF8FEA3F
:100E000093E00C948609CF93DF9300D000D000D0FC
:100E1000CDB7DEB763EE71E0CE0101960E942911D5
:100E2000BE016F5F7F4F81E593E00E94D816CE012F
:100E300001960E94BB100E94E40626960FB6F89415
:100E4000DEBF0FBECDBFDF91CF910895CF93DF936B
:100E50006CEE71E08FEA93E00E94060C6EEF71E099
:100E60008FEA93E00E94060C6BE072E08FEA93E059
:100E70000E94060C69E172E08FEA93E00E94060C82
:100E800068E272E08FEA93E00E94060C63E472E08D
:100E90008FEA93E00E94060C65E572E08FEA93E02A
:100EA0000E94060C82E393E00E947B17892BD1F30A
:100EB00082E393E00E94EE16C82F813341F460E094
:100EC00070E080E090E0DF91CF910C94BC0482331D
:100ED00041F460E070E080E090E0DF91CF910C940D
:100EE0005E03833321F4DF91CF910C941802853394
:100EF00091F469E672E08FEA93E00E94060C28E024
:100F000088E190E00FB6F894A895809360000FBE3A
:100F100020936000FFCF8433E1F46EE772E08FEA44
:100F200093E00E94E70B0E94A006EC016DE972E0DD
:100F30008FEA93E00E94E70BD7FD03C062EB72E0FB
:100F400002C065EB72E08FEA93E0DF91CF910C94E1
:100F5000060C863321F4DF91CF910C94030768EBE4
:100F600072E08FEA93E00E94E70B6C2F8FEA93E028
:100F7000DF91CF910C94180C1F920F920FB60F9225
:100F800011242F933F938F939F93AF93BF9380919F
:100F9000A7039091A803A091A903B091AA0330914F
:100FA000A60323E0230F2D3720F40196A11DB11DC8
:100FB00005C026E8230F0296A11DB11D2093A603AC
:100FC0008093A7039093A803A093A903B093AA03C7
:100FD0008091AB039091AC03A091AD03B091AE03AF
:100FE0000196A11DB11D8093AB039093AC03A09318
:100FF000AD03B093AE03BF91AF919F918F913F919D
:101000002F910F900FBE0F901F9018952FB7F89447
:101010006091A7037091A8038091A9039091AA03FE
:101020002FBF08953FB7F8948091AB039091AC0324
:10103000A091AD03B091AE0326B5A89B05C02F3F8C
:1010400019F00196A11DB11D3FBF6627782F892F8A
:101050009A2F620F711D811D911D42E0660F771F4F
:10106000881F991F4A95D1F70895CF92DF92EF928A
:10107000FF92CF93DF936B017C010E941208EB017A
:10108000C114D104E104F10489F00E948B190E947B
:1010900012086C1B7D0B683E734090F381E0C81A08
:1010A000D108E108F108C851DC4FEACFDF91CF91B8
:1010B000FF90EF90DF90CF900895789484B5826090
:1010C00084BD84B5816084BD85B5826085BD85B5EC
:1010D000816085BDEEE6F0E0808181608083E1E89B
:1010E000F0E01082808182608083808181608083D3
:1010F000E0E8F0E0808181608083E1E9F0E08081D8
:1011000082608083808181608083E0E9F0E080817B
:1011100081608083E1ECF0E0808184608083808165
:1011200082608083808181608083E3ECF0E0808155
:1011300081608083E0ECF0E0808182608083E2EC7B
:10114000F0E0808181608083EAE7F0E08081846064
:1011500080838081826080838081816080838081C0
:1011600080688083089590E0FC013197EF30F105AD
:10117000B0F5EA5AFF4F0C947320809180008F776E
:1011800003C0809180008F7D8093800008958091BE
:101190008000877FF9CF84B58F7702C084B58F7DBB
:1011A00084BD0895809190008F7707C08091900052
:1011B0008F7D03C080919000877F80939000089579
:1011C0008091C0008F7703C08091C0008F7D809395
:1011D000C00008958091C200877F8093C200089567
:1011E000CF93DF9390E0FC01EB5BFE4F2491FC0179
:1011F000ED59FE4F8491882349F190E0880F991FA3
:10120000FC01E356FE4FA591B49181579E4FFC011E
:10121000C591D4919FB7611108C0F8948C91209525
:1012200082238C93888182230AC0623051F4F8941F
:101230008C91322F309583238C938881822B8883E5
:1012400004C0F8948C91822B8C939FBFDF91CF9137
:1012500008950F931F93CF93DF931F92CDB7DEB7FF
:10126000282F30E0F901E95DFE4F8491F901EB5B35
:10127000FE4F1491F901ED59FE4F04910023C9F07E
:10128000882321F069830E94B3086981E02FF0E090
:10129000EE0FFF1FE157FE4FA591B4919FB7F89451
:1012A0008C91611103C01095812301C0812B8C9317
:1012B0009FBF0F90DF91CF911F910F910895CF9312
:1012C000DF931F92CDB7DEB76983DC01ED91FC910E
:1012D0000280F381E02D41E050E0BE016F5F7F4F5F
:1012E00009950F90DF91CF910895CF93DF93EC0193
:1012F0008C859D8597FF05C082E00E94E80D9D8743
:101300008C878C859D85DF91CF91089583E00C9427
:101310003D10FC018485958597FD06C082E00E9402
:10132000900D90E00196089582E00E94900D90E06B
:101330000895FC018485958597FD05C02FEF3FEF4B
:1013400035872487089582E00C94E80DCF93DF93CE
:10135000EC0180910D01882331F083E00E94190E89
:101360001816190634F081E090E09B838A8380E0B0
:1013700090E0DF91CF910895FC0120812E5F2083C2
:1013800042E450E06BEA71E080E80C94B40EFC019A
:1013900081819081913A59F4813209F03CC047E053
:1013A00050E066E071E080E00E94B40E43C09132EC
:1013B00091F5803239F467E070E086E091E00E94B8
:1013C000E50E06C0823209F035C0828180930D019E
:1013D0008091060190910701A0910801B091090147
:1013E000803B9440A105B105C1F480910D0180FDC1
:1013F00014C087E797E790930108809300082BE0DB
:1014000088E190E00FB6F894A895809360000FBE35
:10141000209360000FC080E0089588E10FB6F89433
:1014200080936000109260000FBEA8951092010892
:101430001092000881E008952FEF3FEFFC013587FF
:10144000248708951092B2031092B10388EE93E0BE
:10145000A0E0B0E08093B3039093B403A093B503EE
:10146000B093B6038BEC92E09093B0038093AF03FC
:101470008FEF9FEF9093BC038093BB030895FC0113
:10148000818D228D90E0805C9F4F821B91098F732C
:1014900099270895FC01918D828D981731F0828DE6
:1014A000E80FF11D858D90E008958FEF9FEF08956F
:1014B000FC01918D828D981761F0828DDF01A80F5C
:1014C000B11D5D968C91928D9F5F9F73928F90E07E
:1014D00008958FEF9FEF089587E29BE1892B49F0F4
:1014E00080E090E0892B29F00E94271B81110C9449
:1014F00000000895FC01848DDF01A80FB11DA35ADF
:10150000BF4F2C91848D90E001968F739927848F23
:10151000A689B7892C93A089B1898C9180648C931A
:10152000938D848D981306C00288F389E02D808105
:101530008F7D80830895CF93DF93EC01888D88237E
:10154000C9F0EA89FB89808185FD05C0A889B98930
:101550008C9186FD0FC00FB607FCF5CF808185FF0B
:10156000F2CFA889B9898C9185FFEDCFCE010E9479
:101570007A0AE7CFDF91CF910895CF92DF92FF9261
:101580000F931F93CF93DF931F92CDB7DEB76C01FC
:1015900081E0D60158968C9358975B969C915B9707
:1015A0005C968C915C97981307C05096ED91FC91D6
:1015B0005197808185FD2EC0F601038D10E00F5FED
:1015C0001F4F0F731127F02EF601848DF81211C0F2
:1015D0000FB607FCF9CFD6015096ED91FC915197CB
:1015E000808185FFF1CFC60169830E947A0A6981F3
:1015F000EBCF838DE80FF11DE35AFF4F6083D601D7
:101600005B960C935B975296ED91FC91539780817A
:1016100080620CC0D6015696ED91FC91579760837D
:101620005096ED91FC91519780818064808381E098
:1016300090E00F90DF91CF911F910F91FF90DF907D
:10164000CF900895BF92CF92DF92EF92FF92CF9307
:10165000DF93EC016A017B01B22EE889F98982E00F
:101660008083411581EE580761057105A1F060E0A6
:1016700079E08DE390E0A70196010E94322021508D
:1016800031094109510956954795379527952115F7
:1016900080E1380798F0E889F989108260E874E8F9
:1016A0008EE190E0A70196010E943220215031097D
:1016B000410951095695479537952795EC85FD8544
:1016C0003083EE85FF852083188EEC89FD89B082FA
:1016D000EA89FB89808180618083EA89FB89808136
:1016E00088608083EA89FB89808180688083EA89B9
:1016F000FB8980818F7D8083DF91CF91FF90EF9078
:10170000DF90CF90BF900895CF92DF92EF92FF923B
:101710000F931F93CF93DF936C017A01EB01E60ED9
:10172000F71E00E010E0CE15DF0561F06991D601EB
:10173000ED91FC910190F081E02DC6010995080F13
:10174000191FF1CFC801DF91CF911F910F91FF9029
:10175000EF90DF90CF9008956115710581F0DB0166
:101760000D900020E9F7AD0141505109461B570B80
:10177000DC01ED91FC910280F381E02D099480E081
:1017800090E00895EF92FF920F931F93CF93DF9312
:101790008C01FB01C0E0D0E064917F018FEFE81A7B
:1017A000F80A662361F0D801ED91FC910190F08177
:1017B000E02DC8010995C80FD91FF701EDCFCE0163
:1017C000DF91CF911F910F91FF90EF9008950C94AE
:1017D000AC0BDC01ED91FC910190F081E02D0994BE
:1017E00067EE72E00C94AC0B0F931F93CF93DF93D3
:1017F000EC010E94C20B8C01CE010E94F00B800F05
:10180000911FDF91CF911F910F9108950F931F9317
:10181000CF93DF93EC010E94AC0B8C01CE010E94B0
:10182000F00B800F911FDF91CF911F910F910895C1
:101830000F931F93CF93DF93EC010E94E90B8C0170
:10184000CE010E94F00B800F911FDF91CF911F916D
:101850000F9108958F929F92AF92BF92CF92DF9295
:10186000EF92FF920F931F93CF93DF93CDB7DEB725
:10187000A1970FB6F894DEBF0FBECDBF7C01C42E7A
:10188000E52FCB01D22E19A221E02D1510F02AE070
:10189000D22E8E010F5D1F4F8D2C912CA12CB12CBF
:1018A0006C2D7E2FA50194010E9432208C2DD29E9A
:1018B00080191124015011098A3014F4805D01C08F
:1018C000895CF8018083211531054105510521F01E
:1018D000C22EE32FCA01E4CFB801C7010E94AC0BAE
:1018E000A1960FB6F894DEBF0FBECDBFDF91CF91AA
:1018F0001F910F91FF90EF90DF90CF90BF90AF902E
:101900009F908F900895CF92DF92EF92FF920F9366
:101910001F93CF93DF93EC016A017B012115310501
:1019200079F4E881F9810190F081E02D642FDF9155
:10193000CF911F910F91FF90EF90DF90CF9009947E
:101940002A303105E9F477FF1AC06DE20E94E90BF5
:101950008C0144275527BA014C195D096E097F098E
:101960002AE0CE010E942A0C800F911FDF91CF91B7
:101970001F910F91FF90EF90DF90CF9008952AE094
:10198000B701A601CE01DF91CF911F910F91FF907A
:10199000EF90DF90CF900C942A0C9A01AB01662750
:1019A00057FD6095762F0C94830C0F931F93CF9364
:1019B000DF93EC019A01AB01662757FD6095762F06
:1019C0000E94830C8C01CE010E94F00B800F911FAE
:1019D000DF91CF911F910F9108952115310541F4A9
:1019E000DC01ED91FC910190F081E02D642F0994D0
:1019F0000C942A0C9A01462F50E060E070E00C94A1
:101A0000ED0C0F931F93CF93DF93EC019A01AB0181
:101A100060E070E00E94ED0C8C01CE010E94F00BA2
:101A2000800F911FDF91CF911F910F9108954091E9
:101A300003045091040420910104309102044217E0
:101A40005307B4F49091E8009570E1F39091E800A9
:101A500092FD19C08093F1008091030490910404D9
:101A600001968F739927892B19F48EEF8093E800E4
:101A70008091030490910404019690930404809350
:101A8000030481E0089580E00895CF92DF92FF92F1
:101A90000F931F93CF93DF931F92CDB7DEB7082F1D
:101AA000162F862F880F8E5F99830E94170D83E073
:101AB0000E94170DF02EC02E9981D92E8C2D8F19D2
:101AC000811778F4F60184910E94170D082F80E0A9
:101AD0000E94170D8023FFEFCF1ADF0A8111EECF8E
:101AE00001C081E00F90DF91CF911F910F91FF9086
:101AF000DF90CF900895615030F02091F100FC010B
:101B000020830196F8CF289884E6809306040895F0
:101B10002FB7FC012083F89467706093E900089563
:101B2000CF93DF931F92CDB7DEB7682FCE0101961A
:101B30000E94880D8091F20099819FBF0F90DF91E4
:101B4000CF910895FF920F931F93CF93DF9300D00F
:101B5000CDB7DEB7F62E8A0190910504992311F0D6
:101B600057FF03C08FEF9FEF2BC0682FCE01019668
:101B70007A830E94880D8091F20090E0A8017A811A
:101B8000801791070CF4AC01EF2DF72FF40E84E6CB
:101B9000FE1639F02898809306049091F1009193F5
:101BA000F7CF4115510521F08091F200882321F0F3
:101BB00089818FBFCA0104C08BE68093E800F8CF0B
:101BC0000F900F90DF91CF911F910F91FF9008958B
:101BD000CF93DF931F92CDB7DEB741E050E0BE0157
:101BE0006F5F7F4F0E94A20D019719F4898190E0E9
:101BF00002C08FEF9FEF0F90DF91CF910895CF93A9
:101C0000DF931F92CDB7DEB7682FCE0101960E94F9
:101C1000880D9091E800892F807295FF04C0909103
:101C2000F20080E4891B99819FBF0F90DF91CF91D3
:101C300008956F927F928F929F92AF92BF92CF92B0
:101C4000DF92EF92FF920F931F93CF93DF931F9238
:101C5000CDB7DEB7782E7B01C42EB52E809105045A
:101C6000882369F0042F152F8AEFD82E872D8072D4
:101C7000982E9AE3A92E872D8074882E11C08FEF9D
:101C80009FEF57C0872D0E94FF0D682E81110CC059
:101C9000DA94A9F361E070E080E090E00E943508FA
:101CA0000115110579F73BC0282F30E00217130703
:101CB0000CF4602E672DCE0101960E94880D809154
:101CC000E80085FF29C0262D30E0021B130B992068
:101CD00039F06A948FEF6816B1F01092F100F9CFE5
:101CE000F701862D77FE07C0815058F094919093AC
:101CF000F1003196F9CF815020F091919093F1004D
:101D0000FACFE20EF31E8091E80085FF0FC00115A7
:101D1000110511F481100AC089818FBFC1CF5D9870
:101D200084E6809307048C2D9B2D03C0A092E800CD
:101D3000F3CF0F90DF91CF911F910F91FF90EF9014
:101D4000DF90CF90BF90AF909F908F907F906F90DB
:101D500008951092E90010920404109203049093E5
:101D60000204809301040895CF92DF92FF920F93B3
:101D70001F93CF93DF9300D0CDB7DEB7F82E8A0143
:101D80006B0101151105B1F0F601F7FE02C0849157
:101D900001C0808149835A830E94170D01501109A7
:101DA000FFEFCF1ADF0A49815A818111EACF8FEF05
:101DB0009FEF01C0CA010F900F90DF91CF911F914B
:101DC0000F91FF90DF90CF9008951F93CF93DF93F3
:101DD0001F92CDB7DEB7162F2091E80022FFFCCF6F
:101DE000612F79830E947B0D8BEF8093E800812F18
:101DF0007981972F0F90DF91CF911F910895CF9305
:101E0000DF931F92CDB7DEB71982CE0101960E94F3
:101E1000BC09CE0101960E94AA19898190E00F9019
:101E2000DF91CF9108951F920F920FB60F92112458
:101E3000EF92FF920F931F932F933F934F935F93D4
:101E40006F937F938F939F93AF93BF93EF93FF9382
:101E5000CF93DF93CDB7DEB76297DEBFCDBF1092D1
:101E6000E9008091E80083FFEBC068E0CE010A96AC
:101E70000E947B0D82EF8093E8009A8597FF05C052
:101E80008091E80080FFFCCF03C08EEF8093E800D4
:101E9000892F807609F0B9C08B85811105C0109219
:101EA000F1001092F100C5C0282F2D7F213009F4D8
:101EB000C0C0853049F48091E80080FFFCCF8C855C
:101EC00080688093E300B5C0863009F076C02D8528
:101ED000E888F988223071F580E090E02A8B0E9432
:101EE000A90E0E94FF0E99E08E010F5F1F4FF801AF
:101EF000392F11923A95E9F799832A892A8391E03B
:101F00009E8390E898879AEF9987209103043091F7
:101F10000404275F3F4F3C832B838D83C7010E94BE
:101F2000A90E49E050E0B80180E00E94B40E0E9482
:101F3000FF0E7FC0C7012A8B0E94A90E2A89223278
:101F400041F482E290E00E94B519892B09F071C03A
:101F500074C0213069F488899989089711F4209315
:101F6000000480910004811118C064E072E01AC07E
:101F7000233009F062C08C85882391F0823021F4EF
:101F80006CE082E292E006C0813009F056C06BE05E
:101F900086E192E00E94450D4AC062EF71E002C006
:101FA0006FE272E06115710509F447C0FB014491CD
:101FB00050E080E80E94B40E3CC0873009F43DC078
:101FC000883021F481E08093F10033C0893089F5B5
:101FD000937099F5EEEEF1E081E021E096E38093D5
:101FE000E9002093EB0034913093EC009093ED00E6
:101FF0008F5F3196853099F78EE78093EA001092D3
:10200000EA008C858093050414C0888999890E9410
:10201000A90E8E85811105C0CE010A960E94C709BE
:1020200006C0823051F4CE010A960E94DD19882341
:1020300021F08EEF8093E80003C081E28093EB00F3
:1020400062960FB6F894DEBF0FBECDBFDF91CF9181
:10205000FF91EF91BF91AF919F918F917F916F9180
:102060005F914F913F912F911F910F91FF90EF90B2
:102070000F900FBE0F901F9018958093E9008091EC
:10208000F200882319F08AE38093E80008951F92F4
:102090000F920FB60F9211242F933F934F935F939C
:1020A0006F937F938F939F93AF93BF93EF93FF9320
:1020B0008091E1001092E10083FF0FC01092E900CF
:1020C00091E09093EB001092EC0092E39093ED007E
:1020D0001092050498E09093F00082FF1DC083E009
:1020E0000E943D1080910704882339F080910704F5
:1020F000815080930704882369F080910604882327
:1021000059F080910604815080930604811104C027
:10211000289A02C05D9AF1CFFF91EF91BF91AF91E4
:102120009F918F917F916F915F914F913F912F91EF
:102130000F900FBE0F901F9018951092050481E02C
:102140008093D70080EA8093D80082E189BD09B4EA
:1021500000FEFDCF61E070E080E090E00E94350875
:1021600080E98093D8008CE08093E2001092E00038
:10217000559A209A0895FC01808191810C94101C3D
:10218000CF93DF93EC0188819981009711F00E9431
:10219000101C198218821D821C821B821A82DF91F8
:1021A000CF9108950F931F93CF93DF93EC018B0191
:1021B0006F5F7F4F888199810E949F1C009731F04B
:1021C000998388831B830A8381E001C080E0DF91CB
:1021D000CF911F910F910895CF93DF93EC018881E8
:1021E0009981892B29F08A819B818617970760F452
:1021F000CE010E94D210882341F08C819D81892BD1
:1022000019F4E881F981108281E0DF91CF9108957E
:10221000EF92FF920F931F93CF93DF93EC017B011B
:102220008A01BA010E94EC10811104C0CE010E9403
:10223000C01007C01D830C83B701888199810E945B
:10224000751DCE01DF91CF911F910F91FF90EF90FF
:102250000895FC0111821082138212821582148269
:102260006115710559F0FB0101900020E9F7AF01FC
:1022700041505109461B570B0C9408110895CF93F8
:10228000DF93EC01FB018617970761F06081718194
:102290006115710529F0448155810E94081102C021
:1022A0000E94C010CE01DF91CF910895FC011182F0
:1022B000108213821282158214820C943F11EF92C5
:1022C000FF920F931F93CF93DF93EC017B010C815F
:1022D0001D816115710511F480E016C0411551058D
:1022E00091F0040F151FB8010E94EC108823A1F390
:1022F000288139818C819D81B701820F931F0E94B3
:10230000751D1D830C8381E0DF91CF911F910F918B
:10231000FF90EF900895FB014481558160817181A8
:102320000C945F116115710559F0FB0101900020BB
:10233000E9F7AF0141505109461B570B0C945F114F
:1023400080E0089508950E945D080E94A2118FEF19
:1023500093E00E949D100E94D101CCE6DAE00E9439
:1023600026072097E1F30E946C0AF9CFFC01238134
:1023700034812627022E2295207F2025032E322FFE
:1023800022952F700226269532272327220F220F0F
:10239000220F2025FC01348323830895CF93DF93FC
:1023A000EC018D819E81DC01ED91FC916C810190AD
:1023B000F081E02D09958D819E81DC01ED91FC91EC
:1023C0000190F081E02D6B81DF91CF9109948F9284
:1023D0009F92AF92BF92CF92DF92EF92FF92CF93F4
:1023E000DF93EC016B010E9406084B015C01E12CBC
:1023F000F12C8D819E81DC01ED91FC910680F781AD
:10240000E02D099597FF0DC00E940608681979090B
:102410008A099B096C157D058E059F0550F38FEF8A
:102420009FEFDF91CF91FF90EF90DF90CF90BF9023
:10243000AF909F908F900895CF93DF93EC018D81A3
:102440009E81DC01ED91FC910480F581E02D0995E0
:102450001816190654F48D819E81DC01ED91FC91D2
:102460000680F781E02D0995EACFDF91CF9108959D
:102470002F923F924F925F926F927F928F929F9294
:10248000AF92BF92CF92DF92EF92FF920F931F9382
:10249000CF93DF93CDB7DEB72D970FB6F894DEBF9D
:1024A0000FBECDBF3C011B013C832B83BF82AE829C
:1024B0005801AC0CBD1CA40EB51EBD824B2C512C7A
:1024C000CA01860F971F99878887D901A00FB11F6E
:1024D000BB87AA87F601EE0DFF1DFD87EC87D301B0
:1024E00018968C91581608F026C1EFEFFFEFD30134
:1024F0001496FC93EE93139715968D919C911697D5
:10250000DC01ED91FC910190F081E02D6FEF0995D8
:102510006FEFC3010E94B611F30185819681DC0142
:10252000ED91FC910190F081E02DD3016C91099522
:10253000F3016081C3010E94B611D30115968D91FC
:102540009C911697DC01ED91FC910190F081E02DBA
:102550006D810995642DC3010E94B611F301858137
:102560009681DC01ED91FC910190F081E02D6A2DC6
:1025700009956A2DC3010E94B6116101888599856C
:10258000C816D906A1F0F301858196818601DC0188
:10259000ED91FC910190F081E02DD6016D916D01DE
:1025A0000995F8016081C3010E94B611E7CFCB8085
:1025B000DC808A859B85C816D906B1F0D3011596B3
:1025C0008D919C9116978601DC01ED91FC91019013
:1025D000F081E02DD6016D916D010995F8016081C2
:1025E000C3010E94B611E5CF87018C859D85081730
:1025F0001907B1F0D30115968D919C91169768013A
:10260000DC01ED91FC910190F081E02DD8016D91FC
:102610008D010995F6016081C3010E94B611E5CFD5
:10262000C3010E94CE1164E670E0C3010E94E7116D
:102630008F3F910509F074C0EFEFFFEFD3011496BF
:10264000FC93EE9313976FEFC3010E94B61165E000
:1026500070E0C3010E94E711D3016C91262F30E096
:102660008217930709F05CC0C3010E94B6116AE0AB
:1026700070E0C3010E94E7118C0197FD51C0682FE3
:10268000C3010E94B6116AE070E0C3010E94E71125
:102690006C0197FD45C0682FC3010E94B6110A83E3
:1026A000198209811A810C0D1D1DC12CD12C65E0E8
:1026B00070E0C301C016D106A1F0C814D90489F096
:1026C0000E94E71197FD09C0EE81FF81EC0DFD1D11
:1026D0008083682FC3010E94B611BFEFCB1ADB0ABB
:1026E000E6CF0E94E7116C0197FD1AC065E070E02B
:1026F000C3010E94E71197FD13C0DC2CCC24C80E47
:10270000D91EF301838194818C159D0549F4808144
:102710008F5F8083C8018016910678F4C4010DC0D4
:10272000539464E670E080E090E00E943508C301B5
:102730000E941C12D4CE8FEF9FEF2D960FB6F89407
:10274000DEBF0FBECDBFDF91CF911F910F91FF90E4
:10275000EF90DF90CF90BF90AF909F908F907F9041
:102760006F905F904F903F902F9008953F924F92BF
:102770005F926F927F928F929F92AF92BF92CF9211
:10278000DF92EF92FF920F931F93CF93DF93CDB71A
:10279000DEB72E970FB6F894DEBF0FBECDBF3C015B
:1027A000DC0117968C9117978111CFC081E01796A5
:1027B0008C93C3010E941C1268EE73E080E090E0ED
:1027C0000E943508F30185819681DC01ED91FC9131
:1027D0000480F581E02D09951816190654F355E08B
:1027E000552E4424439462E3362EE0E1F1E0DE010D
:1027F0001696852D01900D928A95E1F7F30140869A
:10280000812C912CA12CB12CC12CD12CE12CF12CA0
:1028100000E010E020E030E045E050E0BE016A5FFB
:102820007F4FC3010E94381263E0D30115968D914A
:102830009C9116970E94E90B6AEF70E080E090E0AF
:102840000E94350861E472E0F301858196810E945F
:10285000C20B6AEF70E080E090E00E9435086FE301
:1028600072E0D30115968D919C9116970E94C20B30
:1028700064EF71E080E090E00E94350863E372E06D
:10288000F301858196810E94C20B64EF71E080E0C4
:1028900090E00E943508C3010E941C12E5E1F1E0BE
:1028A000DE011196852D01900D928A95E1F7D301F5
:1028B00018963C9244E0842E912CFE013B965F01D9
:1028C00020E030E045E050E0BE016F5F7F4FC30184
:1028D0000E9438128F3FFFEF9F0739F468EE73E0D4
:1028E00080E090E00E94350880CF2B852111FFCF3A
:1028F000049711F52C8530E02053310944E6429FBE
:10290000C001439F900D11242D8530E020533109E3
:102910006AE0629FA001639F500D1124840F951FF0
:102920002E8530E020533109820F931FD301129678
:102930009C938E93119705C084E690E0F3019283F7
:10294000818382E3D30118968C932E960FB6F89468
:10295000DEBF0FBECDBFDF91CF911F910F91FF90D2
:10296000EF90DF90CF90BF90AF909F908F907F902F
:102970006F905F904F903F9008951092080484E606
:1029800094E090930E0480930D0410920F04109223
:1029900010049093120480931104089508958F9267
:1029A0009F92AF92BF92CF92DF92EF92FF920F93DE
:1029B0001F9348015901C12CD12CE12CF12C00E0CE
:1029C00010E020E030E00E9438121F910F91FF903C
:1029D000EF90DF90CF90BF90AF909F908F90089531
:1029E0000F931F93CF93DF9300D01F92CDB7DEB725
:1029F00029E42983FC0126852A836B8300E010E00B
:102A000020E030E043E050E0BE016F5F7F4F8485FF
:102A100095850E94CF1481E090E00F900F900F9069
:102A2000DF91CF911F910F910895EF92FF920F9335
:102A30001F93CF93DF9300D01F92CDB7DEB77C01F9
:102A4000FC018389811117C0148A8FE489838685EC
:102A50008A8380E48B8397012B5E3F4F00E410E074
:102A600043E050E0BE016F5F7F4F848595850E94F3
:102A7000CF14F701838B0F900F900F90DF91CF91C0
:102A80001F910F91FF90EF900895CF93DF93EC018A
:102A90000E9415158B8990E0DF91CF910895CF9317
:102AA000DF93EC010E9415158B89882359F0815022
:102AB0008B8B8C8991E0980F9C8BC80FD11D8D89D1
:102AC00090E002C08FEF9FEFDF91CF910895CF93F9
:102AD000DF93EC010E9415158B89882331F08C89D6
:102AE000C80FD11D8D8990E002C08FEF9FEFDF915D
:102AF000CF9108950F931F93CF93DF93EC018B0138
:102B000066EF72E0888999890E949211B8018889DC
:102B10009989DF91CF911F910F910C948B116F9236
:102B20007F928F929F92AF92BF92CF92DF92EF925D
:102B3000FF920F931F93CF93DF9300D01F92CDB7D7
:102B4000DEB73C0182E58B83D3015096ED91FC9179
:102B50005197048115812081318182E0882E912C4A
:102B6000FE0131965F01C12CD12CE12CF12C41E00A
:102B700050E0BE016D5F7F4F1C968D919C911D971B
:102B80000E9438128A8190E0D3011F969C938E9305
:102B90001E9750960D911C9151970115110531F01A
:102BA000C8010E94BB10C8010E94761BF301118A64
:102BB000108A8981811102C081E0828B0F900F9071
:102BC0000F90DF91CF911F910F91FF90EF90DF90C9
:102BD000CF90BF90AF909F908F907F906F9008950F
:102BE0000F931F93CF93DF9300D01F92CDB7DEB723
:102BF00022E72983FC0126852A8301E010E09E015B
:102C00002D5F3F4F42E050E0BE016F5F7F4F8485F4
:102C100095850E94CF1481E09B81913009F080E07E
:102C20000F900F900F90DF91CF911F910F9108950A
:102C30000F931F93CF93DF9300D000D0CDB7DEB7B3
:102C400027E52B83FC0126852C8302E010E09E0102
:102C50002F5F3F4F42E050E0BE016D5F7F4F8485A4
:102C600095850E94CF14898190E0982F88272A812A
:102C7000820F911D0F900F900F900F90DF91CF91C9
:102C80001F910F910895EF92FF920F931F93CF938F
:102C9000DF9300D0CDB7DEB77C01FC0182898823A9
:102CA00089F087E7898386858A8300E010E020E049
:102CB00030E042E050E0BE016F5F7F4F8485958534
:102CC0000E94CF14F701128A0F900F90DF91CF91DD
:102CD0001F910F91FF90EF90089528E033E0FC01E1
:102CE000318320830C944316EF92FF920F931F932E
:102CF000CF93DF9300D0CDB7DEB77C0169837A83B1
:102D00000E94431686E090E00E94741B8C0169814A
:102D10007A810E945611F701118B008B0F900F9052
:102D2000DF91CF911F910F91FF90EF900895EF9257
:102D3000FF920F931F93CF93DF9300D000D000D06A
:102D4000CDB7DEB78C017B0168EF72E0CE01019652
:102D50000E942911BE016F5F7F4FC8010E94741647
:102D6000CE0101960E94BB1061E073E0CE01019696
:102D70000E942911BE016F5F7F4FC8010E947A1522
:102D8000CE0101960E94BB10B701C8010E947A15BE
:102D9000C8010E948F1526960FB6F894DEBF0FBEAD
:102DA000CDBFDF91CF911F910F91FF90EF900895CC
:102DB000CF93DF93EC010E949716CE010E94F0158D
:102DC000882339F064E670E080E090E00E943508E6
:102DD000F4CFCE01DF91CF910C94181620915504B9
:102DE0003091560428173907B9F490911304809153
:102DF0001404981789F0E0911304F0E0EB5EFB4FA8
:102E000080812091130430E02F5F3F4F2F733327D1
:102E10002093130490E008958FEF9FEF08951F9380
:102E2000CF93DF93DC015C968D919C915D97009729
:102E300049F481E090E013969C938E93129780E082
:102E400090E03BC05196ED91FC91529750962C9199
:102E50005097322F30951FB75E964C915E9741FB8D
:102E6000772770F941FD6095F8944081772311F040
:102E7000422B01C043234083EC012197F1F748E046
:102E8000508160FF02C0522B01C053235083EC01DC
:102E90002197F1F76695415099F78081772311F0DA
:102EA000832301C0822B80831FBF5C968D919C91F0
:102EB0005D970197F1F781E090E0DF91CF911F914D
:102EC000089520915504309156042817390781F44C
:102ED0009091130480911404981751F0E091130419
:102EE000F0E0EB5EFB4F8081992787FD9095089578
:102EF0008FEF9FEF089520915504309156042817C5
:102F0000390771F4809114042091130490E0805CDF
:102F10009F4F821B910960E470E00E941E2008957B
:102F200080E090E0089520915504309156042817D0
:102F3000390739F48FB7F8941092140410921304DF
:102F40008FBF0895E0915504F0915604E817F907F2
:102F500069F4A389B4899C918589809589238C9390
:102F6000109256041092550481E0089580E008956F
:102F7000CF93DF93EC018A8D9B8D892BF1F08091AB
:102F80005504909156048C179D07B9F0009711F0E5
:102F90000E94A2178E8D8E7F8E8F10921404109235
:102FA0001304D0935604C0935504EB89FC898081A7
:102FB0009D89892B808381E001C080E0DF91CF91E2
:102FC00008951F920F920FB60F9211242F933F93E3
:102FD0004F935F936F937F938F939F93AF93BF9321
:102FE000EF93FF93E0915504F0915604309709F464
:102FF00051C0868DA685B785958581FF04C08C91CB
:10300000892329F447C08C91892309F043C0A389FF
:10301000B4899C918589809589238C938689978929
:103020000197F1F7208D318DA685B785758558E01C
:1030300040E0C9010197F1F7842F90E095958795BD
:10304000482F6C91672309F04068515091F7868DA5
:1030500081FD40958091140490E001968F7399272B
:1030600020911304281749F0A0911404B0E0AB5E3E
:10307000BB4F4C938093140403C0868D8160868F70
:10308000828D938D0197F1F7A389B4898C919589ED
:10309000892B8C93FF91EF91BF91AF919F918F916D
:1030A0007F916F915F914F913F912F910F900FBE44
:1030B0000F901F90189528E133E0FC0131832083A5
:1030C0000C94A2171F93CF93DF93EC01162F6E8DF4
:1030D0006695617081E06827812F0E94290961E06F
:1030E000812F0E94F008812F90E0FC01EB5BFE4FE6
:1030F000E491E88BFC01ED59FE4FE491F0E0EE0F16
:10310000FF1FE157FE4F859194919A8B898BDF9138
:10311000CF911F9108951F93CF93DF93EC01162F4A
:1031200060E0812F0E94F0088E8D81FD04C061E077
:10313000812F0E9429091C87812F90E0FC01EB5B05
:10314000FE4FE491ED87FC01ED59FE4FE491F0E074
:10315000EE0FFF1FEF57FE4F859194919F878E874B
:10316000DF91CF911F910895FF920F931F93CF93FB
:10317000DF93EC01F62E522F1B821A8208EE13E029
:1031800020E030E00C831D832E833F8388E193E0B1
:10319000998388831F8A1E8A198E188E1B8E1A8E19
:1031A0001D8E1C8E8E8D8E7F50FB81F98E8F642F2D
:1031B000CE010E9462186F2DCE01DF91CF911F9139
:1031C0000F91FF900C948B18CF93DF93EC019A0131
:1031D000AB011B8E1A8E198E188E1F8A1E8A60E014
:1031E00079E08DE390E00E945420C901243031053C
:1031F00020F0B9016350710902C061E070E07D8F79
:103200006C8FEC85F8EFFE0FF43048F062EF6E0F34
:10321000643028F066EE6E0F633008F06FC0B901BD
:10322000769567956431710518F06351710902C094
:1032300061E070E07F8B6E8B069718F0C9010597EF
:1032400002C081E090E0998F888FC901880F991F93
:10325000820F931F96958795969587958D3091054A
:1032600010F00C9702C081E090E09B8F8A8FF430C1
:1032700058F082EF8E0F843038F0EA51E33008F0D6
:1032800042C0A8E6B0E041C0A8E6B0E0E8E6F0E061
:10329000808181608C932C8538EF320F343040F080
:1032A00082EF820F843020F086EE820F833018F494
:1032B0008BE690E002C080E090E09C8B8B8B3430FA
:1032C00010F4245009C02E3069F02F3069F02031FD
:1032D00069F0213169F0265181E001C0880F2A95FB
:1032E000EAF707C088E005C082E003C084E001C0BF
:1032F00081E08D8B8C8D9D8D0197F1F7CE01DF9153
:10330000CF910C94B817A0E0B0E0E33008F4BECF42
:10331000E0E0F0E0BDCF0895FF920F931F93CF93AD
:10332000DF93EC01F62EE881F9810480F581E02D30
:1033300009958C01E881F9810680F781E02D6F2DD8
:10334000CE010995C8019927DF91CF911F910F9167
:10335000FF900895FC0120812F5F208349E150E018
:1033600063EC72E080E80C94B40E45E650E06CED3E
:1033700072E080E80C94B40EEF92FF920F931F93CB
:10338000CF93DF931F92CDB7DEB789838B017A018C
:1033900041E050E0BE016F5F7F4F84E00E94190E54
:1033A000A701B80184E40E94190E0F90DF91CF911C
:1033B0001F910F91FF90EF900895FC019181808102
:1033C000813A31F481E0913091F0933089F411C069
:1033D000813271F49B3021F4828180930F0105C00A
:1033E0009A3031F4828180930E0181E0089508952E
:1033F00080E0089548E050E082E00C94BC19CF933F
:10340000DF93DC01683818F0E8E7E60F25C0E62F07
:10341000F0E067FF11C0E058F10981E090E001C0E1
:10342000880FEA95EAF714969C911497982B1496B6
:103430009C931497E0E010C0ED5BFD4FE491EE2308
:1034400009F440C0E7FF08C014968C91149782607D
:1034500014968C931497EF7716968C9116978E1777
:1034600041F117968C9117978E1719F118968C9138
:1034700018978E17F1F019968C9119978E17C9F03D
:103480001A968C911A978E17A1F01B968C911B9708
:103490008E1779F080E090E0ED01C80FD91F2E81E2
:1034A000211102C0EE8305C0019686309105A1F777
:1034B00009C0BD016C5F7F4FCD010E94FA1981E008
:1034C00090E008C081E090E013969C938E93129751
:1034D00080E090E0DF91CF910895683818F0E8E738
:1034E000E60F25C0E62FF0E067FF12C0E058F109B3
:1034F00021E030E001C0220FEA95EAF72095DC01D7
:1035000014963C911497322314963C93E0E00FC03C
:10351000ED5BFD4FE491EE2329F1E7FF08C0DC01EC
:1035200014962C9114972D7F14962C93EF7720E00E
:1035300030E0EE2351F0DC01A20FB31F16964C9140
:1035400016974E1302C016961C922F5F3F4F2630DF
:10355000310579F7BC016C5F7F4F0E94FA1981E059
:1035600090E0089580E090E00895FC0116821782B3
:1035700010861186128613861482BC016C5F7F4F01
:103580000C94FA191092630410925A041092590480
:1035900088E293E0909358048093570408951F9213
:1035A0000F920FB60F9211242F938F939F93EF9347
:1035B000FF93E0917404F09175048081E0917A04A6
:1035C000F0917B0482FD12C0908180917D048F5F19
:1035D0008F7320917E04821751F0E0917D04F0E01A
:1035E000EC59FB4F958F80937D0401C08081FF9142
:1035F000EF919F918F912F910F900FBE0F901F9081
:1036000018951F920F920FB60F9211242F933F938C
:103610004F935F936F937F938F939F93AF93BF93DA
:10362000EF93FF9384E694E00E947A0AFF91EF9172
:10363000BF91AF919F918F917F916F915F914F91CA
:103640003F912F910F900FBE0F901F90189584E619
:1036500094E00E943F0A21E0892B09F420E0822FA8
:103660000895109267041092660488EE93E0A0E03B
:10367000B0E08093680490936904A0936A04B093C7
:103680006B048BED92E090936504809364048DEC61
:1036900090E090937104809370048CEC90E0909390
:1036A00073048093720488EC90E090937504809387
:1036B000740489EC90E090937704809376048AEC0C
:1036C00090E090937904809378048EEC90E090934E
:1036D0007B0480937A0410927D0410927E041092F1
:1036E0007F041092800408950C94781B0C94101C95
:1036F000CF93DF938230910510F482E090E0E09167
:103700000305F091040520E030E0A0E0B0E0309740
:1037100039F14081518148175907B8F048175907C6
:1037200071F482819381109729F013969C938E9364
:1037300012972CC0909304058093030527C0211590
:10374000310531F04217530718F0A901DB0101C020
:10375000EF019A01BD01DF010280F381E02DD7CF97
:1037600021153105F9F0281B390B2430310580F47F
:103770008A819B816115710521F0FB01938382830E
:1037800004C09093040580930305FE01329644C063
:10379000FE01E20FF31F8193919322503109398387
:1037A00028833AC02091010530910205232B41F472
:1037B000209102013091030130930205209301050D
:1037C00020910001309101012115310541F42DB7FF
:1037D0003EB74091040150910501241B350BE09147
:1037E0000105F0910205E217F307A0F42E1B3F0B31
:1037F0002817390778F0AC014E5F5F4F2417350763
:1038000048F04E0F5F1F50930205409301058193CE
:10381000919302C0E0E0F0E0CF01DF91CF910895F5
:10382000CF93DF93009709F487C0FC01329713828E
:103830001282C0910305D0910405209781F4208164
:103840003181280F391F809101059091020582175F
:10385000930779F5F0930205E09301056DC0DE0151
:1038600020E030E0AE17BF0750F412964D915C9106
:1038700013979D014115510509F1DA01F3CFB38387
:10388000A28340815181840F951F8A179B0771F491
:103890008D919C911197840F951F0296918380833F
:1038A00012968D919C9113979383828321153105F4
:1038B00029F4F0930405E09303053EC0D901139663
:1038C000FC93EE9312974D915D91A40FB51FEA17EB
:1038D000FB0779F480819181840F951F0296D901AD
:1038E00011969C938E938281938113969C938E93D1
:1038F0001297E0E0F0E08A819B81009719F0FE01C9
:10390000EC01F9CFCE01029628813981820F931FF5
:1039100020910105309102052817390769F4309785
:1039200029F4109204051092030502C0138212823A
:10393000D0930205C0930105DF91CF910895A0E0D7
:10394000B0E0E5EAFCE10C947D20EC01CB0120978E
:1039500019F40E94781BB8C0FE01E60FF71F9E0104
:1039600022503109E217F30708F4ACC0D9010D91D8
:103970001C91119706171707B8F00530110508F4C8
:103980009FC0A801445051094617570708F498C032
:1039900002501109061B170B019311936D937C9331
:1039A000CF010E94101C8CC05B01A01AB10A4E010D
:1039B000800E911EA0910305B0910405612C712C1D
:1039C00060E070E0109709F449C0A815B905C9F581
:1039D000ED90FC901197670142E0C40ED11CCA140F
:1039E000DB0478F147018A189B08640142E0C40EA9
:1039F000D11C1296BC9012971396AC91B5E0CB16E1
:103A0000D10440F0B282A38391828082D9018D9348
:103A10009C9309C00E5F1F4F0E0D1F1DF9011183EE
:103A20000083EB2DFA2F6115710531F0DB01139640
:103A3000FC93EE93129744C0F0930405E0930305C2
:103A40003FC06D917C9111976616770608F43B0193
:103A5000BD0112960D90BC91A02DB4CF60910105CF
:103A60007091020568157905E9F468167906D0F4B5
:103A700040910001509101014115510541F44DB7AC
:103A80005EB76091040170910501461B570BE41766
:103A9000F507C0F4F0930205E0930105F901918365
:103AA00080830EC00E94781B7C01009759F0A8010A
:103AB000BE010E946C1DCE010E94101CC70104C0F3
:103AC000CE0102C080E090E0CDB7DEB7EEE00C940E
:103AD0009920F8940C94C420FB01DC0102C00190F1
:103AE0000D9241505040D8F70895FB01DC01019040
:103AF0000D920020E1F70895AEE0B0E0E2E8FDE1CC
:103B00000C9487200D891E8986E08C831A83098393
:103B10008FEF9FE79E838D83AE01475E5F4F6F8976
:103B2000788DCE0101960E949E1DEF81F885E00FF1
:103B3000F11F10822E96E4E00C94A320ACE0B0E0DC
:103B4000E4EAFDE10C9479207C016B018A01FC011F
:103B500017821682838181FFBDC1CE0101964C017F
:103B6000F7019381F60193FD859193FF81916F0198
:103B7000882309F4ABC1853239F493FD859193FF15
:103B800081916F01853229F4B70190E00E948E1F68
:103B9000E7CF512C312C20E02032A0F48B3269F099
:103BA00030F4803259F0833269F420612CC08D32B8
:103BB00039F0803339F4216026C02260246023C0AC
:103BC000286021C027FD27C030ED380F3A3078F447
:103BD00026FF06C0FAE05F9E300D1124532E13C05D
:103BE0008AE0389E300D1124332E20620CC08E32B4
:103BF00021F426FD6BC1206406C08C3611F42068C8
:103C000002C0883641F4F60193FD859193FF8191BE
:103C10006F018111C1CF982F9F7D9554933028F467
:103C20000C5F1F4FFFE3F9830DC0833631F08337FC
:103C300071F0833509F05BC022C0F801808189836F
:103C40000E5F1F4F44244394512C540115C038017A
:103C5000F2E06F0E711CF801A080B18026FF03C056
:103C6000652D70E002C06FEF7FEFC5012C870E94C9
:103C7000831F2C0183012C852F77222E17C038013A
:103C8000F2E06F0E711CF801A080B18026FF03C026
:103C9000652D70E002C06FEF7FEFC5012C870E9499
:103CA000781F2C012C852068222E830123FC1BC049
:103CB000832D90E048165906B0F4B70180E290E0F9
:103CC0000E948E1F3A94F4CFF50127FC859127FEC0
:103CD00081915F01B70190E00E948E1F31103A94EC
:103CE000F1E04F1A51084114510471F7E5C08436D0
:103CF00011F0893639F5F80127FF07C0608171811D
:103D0000828193810C5F1F4F08C060817181882779
:103D100077FD8095982F0E5F1F4F2F76B22E97FF5D
:103D200009C090958095709561957F4F8F4F9F4FFB
:103D30002068B22E2AE030E0A4010E94C01FA82E05
:103D4000A81844C0853729F42F7EB22E2AE030E02F
:103D500025C0F22FF97FBF2E8F36C1F018F48835B9
:103D600079F0B4C0803719F0883721F0AFC02F2F19
:103D70002061B22EB4FE0DC08B2D8460B82E09C018
:103D800024FF0AC09F2F9660B92E06C028E030E0BD
:103D900005C020E130E002C020E132E0F801B7FECA
:103DA00007C060817181828193810C5F1F4F06C0C3
:103DB0006081718180E090E00E5F1F4FA4010E943E
:103DC000C01FA82EA818FB2DFF77BF2EB6FE0BC074
:103DD0002B2D2E7FA51450F4B4FE0AC0B2FC08C0EF
:103DE0002B2D2E7E05C07A2C2B2D03C07A2C01C0E2
:103DF000752C24FF0DC0FE01EA0DF11D808180337A
:103E000011F4297E09C022FF06C07394739404C084
:103E1000822F867809F0739423FD13C020FF06C01B
:103E20005A2C731418F4530C5718732C731468F429
:103E3000B70180E290E02C870E948E1F73942C853E
:103E4000F5CF731410F4371801C0312C24FF12C0C1
:103E5000B70180E390E02C870E948E1F2C8522FF03
:103E600017C021FF03C088E590E002C088E790E01A
:103E7000B7010CC0822F867859F021FD02C080E284
:103E800001C08BE227FD8DE2B70190E00E948E1FFA
:103E9000A51438F4B70180E390E00E948E1F5A9475
:103EA000F7CFAA94F401EA0DF11D8081B70190E0EB
:103EB0000E948E1FA110F5CF332009F451CEB70117
:103EC00080E290E00E948E1F3A94F6CFF70186813F
:103ED000978102C08FEF9FEF2C96E2E10C94952022
:103EE000F999FECF92BD81BDF89A992780B50895C2
:103EF000FC010590615070400110D8F780959095B5
:103F00008E0F9F1F0895FC016150704001900110B9
:103F1000D8F7809590958E0F9F1F08950F931F934C
:103F2000CF93DF93182F092FEB018B8181FD03C005
:103F30008FEF9FEF20C082FF10C04E815F812C81E8
:103F40003D81421753077CF4E881F9819F012F5F7F
:103F50003F4F39832883108306C0E885F985812F78
:103F60000995892B29F72E813F812F5F3F4F3F8392
:103F70002E83812F902FDF91CF911F910F91089564
:103F8000FA01AA27283051F1203181F1E8946F938A
:103F90006E7F6E5F7F4F8F4F9F4FAF4FB1E03ED030
:103FA000B4E03CD0670F781F891F9A1FA11D680FCE
:103FB000791F8A1F911DA11D6A0F711D811D911D01
:103FC000A11D20D009F468943F912AE0269F112476
:103FD0003019305D3193DEF6CF010895462F4770DA
:103FE000405D4193B3E00FD0C9F7F6CF462F4F7035
:103FF000405D4A3318F0495D31FD4052419302D093
:10400000A9F7EACFB4E0A695979587957795679538
:10401000BA95C9F700976105710508959B01AC0138
:104020000A2E06945795479537952795BA95C9F75F
:10403000620F731F841F951FA01D089597FB072E05
:1040400016F4009407D077FD09D00E94B02007FC39
:1040500005D03EF4909581959F4F08957095619598
:104060007F4F0895A1E21A2EAA1BBB1BFD010DC0B4
:10407000AA1FBB1FEE1FFF1FA217B307E407F50718
:1040800020F0A21BB30BE40BF50B661F771F881FF4
:10409000991F1A9469F760957095809590959B018A
:1040A000AC01BD01CF010895052E97FB1EF40094CD
:1040B0000E946B2057FD07D00E94322007FC03D0DE
:1040C0004EF40C946B2050954095309521953F4FC0
:1040D0004F4F5F4F089590958095709561957F4FF4
:1040E0008F4F9F4F0895EE0FFF1F0590F491E02D25
:1040F00009942F923F924F925F926F927F928F928C
:104100009F92AF92BF92CF92DF92EF92FF920F9366
:104110001F93CF93DF93CDB7DEB7CA1BDB0B0FB670
:10412000F894DEBF0FBECDBF09942A88398848882D
:104130005F846E847D848C849B84AA84B984C884C3
:10414000DF80EE80FD800C811B81AA81B981CE0FBA
:10415000D11D0FB6F894DEBF0FBECDBFED0108959F
:10416000AA1BBB1B51E107C0AA1FBB1FA617B7079D
:1041700010F0A61BB70B881F991F5A95A9F78095B9
:104180009095BC01CD01089513E0CCE4D3E004C0C8
:10419000FE010E9475202296CE34D107C9F7F8940B
:0241A000FFCF4F
:1041A20000000505800000E10000000000000101A0
:1041B2005858585858585831303052756E6E696E8A
:1041C20067207077642E2E2E00707764004545506C
:1041D200524F4D206D656D6F72792066726F6D2042
:1041E20000307825252E2564580009002020200063
:1041F200466C617368206D656D6F72792066726FAF
:104202006D2000537461636B20506F696E74657228
:104212003A005352414D2066726F6D2000300053B8
:104222005441434B3A003078005374617274696EA2
:10423200672073657475702042542E2E2E004154EF
:104242000041542B4E414D450041542B42415544AF
:104252000041542B50494E005365747570206E65B1
:104262007720636F6E66696775726174696F6E201D
:10427200425420646576696365202D3E204F4B2EA3
:104282002E2E006966636F6E6669670057686174F7
:1042920020646F20796F752077616E743F00312E34
:1042A2002044756D70205352414D00322E204475CA
:1042B2006D7020466C61736800332E2044756D70FA
:1042C20020454550524F4D00342E2052756E2056D7
:1042D200756C6E657261626C652046756E63746999
:1042E2006F6E00352E20536F6674776172652052AF
:1042F2006573657400362E20476574206E65747789
:104302006F726B20696E666F00476F696E6720740B
:104312006F2053572072657365742E2E2E005275CE
:104322006E6E696E672076756C6E657261626C6521
:104332002066756E6374696F6E2E2E2E0056756C34
:104342006E657261626C652066756E6374696F6E0C
:1043520020004F4B004B4F0057726F6E67206F70FB
:1043620074696F6E3A2000000000005F09A6098997
:104372000999097509860900000000BD0A840B3FEE
:104382000A580A4A0A9B0A0D0A006E616E00696E9B
:1043920066006F766600FE002F62696E2F61736899
:1043A200002D630000000000F014840B45154F152A
:1043B2006715CE14000000000F17840B7B17EE1652
:1043C20061179317000000008C19840BFF196D1AF6
:0243D200B51A1A
:00000001FF
